:020000040800F2
:1000000000000220D10F0008211000082110000874
:100010002110000821100008211000080000000035
:100020000000000000000000000000002110000897
:10003000211000080000000021100008450C0008F5
:1000400021100008211000082110000821100008CC
:1000500021100008211000082110000821100008BC
:1000600021100008211000082110000821100008AC
:10007000211000082110000821100008211000089C
:10008000211000082110000821100008211000088C
:10009000211000082110000821100008211000087C
:1000A000211000082110000821100008211000086C
:1000B000211000082110000821100008211000085C
:1000C000211000082110000821100008211000084C
:1000D000211000082110000821100008211000083C
:1000E000211000082110000821100008211000082C
:1000F000211000082110000821100008211000081C
:10010000211000082110000821100008211000080B
:1001100021100008211000082110000821100008FB
:1001200021100008211000082110000821100008EB
:1001300021100008211000082110000821100008DB
:1001400021100008211000082110000821100008CB
:1001500021100008211000082110000821100008BB
:1001600021100008211000082110000821100008AB
:1001700021100008211000082110000800000000D4
:08018000211000082110000805
:1001880081F0004102E000BF83F0004330B54FEA40
:1001980041044FEA430594EA050F08BF90EA020FAD
:1001A8001FBF54EA000C55EA020C7FEA645C7FEA40
:1001B800655C00F0E2804FEA5454D4EB5555B8BF63
:1001C8006D420CDD2C4480EA020281EA030382EAD4
:1001D800000083EA010180EA020281EA0303362D66
:1001E80088BF30BD11F0004F4FEA01314FF4801C39
:1001F8004CEA113102D0404261EB410113F0004F4B
:100208004FEA03334CEA133302D0524263EB430301
:1002180094EA050F00F0A780A4F10104D5F1200E9F
:100228000DDB02FA0EFC22FA05F2801841F10001FA
:1002380003FA0EF2801843FA05F359410EE0A5F1CE
:1002480020050EF1200E012A03FA0EFC28BF4CF0FF
:10025800020C43FA05F3C01851EBE37101F00045B5
:1002680007D54FF0000EDCF1000C7EEB00006EEBC2
:100278000101B1F5801F1BD3B1F5001F0CD349084C
:100288005FEA30004FEA3C0C04F101044FEA4452A3
:1002980012F5800F80F09A80BCF1004F08BF5FEA2A
:1002A800500C50F1000041EB045141EA050130BD0A
:1002B8005FEA4C0C404141EB0101013C28BFB1F51C
:1002C800801FE9D291F0000F04BF01460020B1FA67
:1002D80081F308BF2033A3F10B03B3F120020CDA3A
:1002E8000C3208DD02F1140CC2F10C0201FA0CF018
:1002F80021FA02F10CE002F11402D8BFC2F1200C7D
:1003080001FA02F120FA0CFCDCBF41EA0C01904032
:10031800E41AA2BF01EB0451294330BD6FEA04047B
:100328001F3C1CDA0C340EDC04F11404C4F1200266
:1003380020FA04F001FA02F340EA030021FA04F378
:1003480045EA030130BDC4F10C04C4F1200220FACF
:1003580002F001FA04F340EA0300294630BD21FA0D
:1003680004F0294630BD94F0000F83F4801306BFD3
:1003780081F480110134013D4EE77FEA645C18BFC7
:100388007FEA655C29D094EA050F08BF90EA020F5E
:1003980005D054EA000C04BF1946104630BD91EA56
:1003A800030F1EBF0021002030BD5FEA545C05D159
:1003B8004000494128BF41F0004130BD14F5800498
:1003C8003CBF01F5801130BD01F0004545F0FE410C
:1003D80041F470014FF0000030BD7FEA645C1ABF41
:1003E800194610467FEA655C1CBF0B46024650EA78
:1003F800013406BF52EA033591EA030F41F40021A4
:1004080030BD00BF90F0000F04BF0021704730B529
:100418004FF4806404F132044FF000054FF00001FE
:1004280050E700BF90F0000F04BF0021704730B5BF
:100438004FF4806404F1320410F0004548BF404294
:100448004FF000013EE700BF42004FEAE2014FEAE9
:1004580031014FEA02701FBF12F07F4393F07F4FC4
:1004680081F06051704732F07F4208BF704793F0C7
:100478007F4F04BF41F40021704730B54FF46074DA
:1004880001F0004521F000411CE700BF50EA0102DD
:1004980008BF704730B54FF000050AE050EA010286
:1004A80008BF704730B511F0004502D5404261EBF6
:1004B80041014FF4806404F132045FEA915C3FF437
:1004C800D8AE4FF003025FEADC0C18BF03325FEAD4
:1004D800DC0C18BF033202EBDC02C2F1200300FA85
:1004E80003FC20FA02F001FA03FE40EA0E0021FAAA
:1004F80002F11444BDE600BF70B54FF0FF0C4CF498
:10050800E06C1CEA11541DBF1CEA135594EA0C0F49
:1005180095EA0C0F00F0DEF82C4481EA030621EA84
:100528004C5123EA4C5350EA013518BF52EA0335BF
:1005380041F4801143F4801338D0A0FB02CE4FF071
:100548000005E1FB02E506F00042E0FB03E54FF0A1
:100558000006E1FB03569CF0000F18BF4EF0010E99
:10056800A4F1FF04B6F5007F64F5407404D25FEA95
:100578004E0E6D4146EB060642EAC62141EA555148
:100588004FEAC52040EA5E504FEACE2EB4F1FD0C8A
:1005980088BFBCF5E06F1ED8BEF1004F08BF5FEA08
:1005A800500E50F1000041EB045170BD06F00046BA
:1005B80046EA010140EA020081EA0301B4EB5C0467
:1005C800C2BFD4EB0C0541EA045170BD41F480115F
:1005D8004FF0000E013C00F3AB8014F1360FDEBF84
:1005E800002001F0004170BDC4F10004203C35DA60
:1005F8000C341BDC04F11404C4F1200500FA05F3E3
:1006080020FA04F001FA05F240EA020001F0004283
:1006180021F0004110EBD37021FA04F642EB0601F9
:100628005EEA430E08BF20EAD37070BDC4F10C0423
:10063800C4F1200500FA04F320FA05F001FA04F2E7
:1006480040EA020001F0004110EBD37041F10001D3
:100658005EEA430E08BF20EAD37070BDC4F12005DE
:1006680000FA05F24EEA020E20FA04F301FA05F246
:1006780043EA020321FA04F001F0004121FA04F2EE
:1006880020EA020000EBD3705EEA430E08BF20EABE
:10069800D37070BD94F0000F0FD101F000464000F8
:1006A80041EB010111F4801F08BF013CF7D041EA7A
:1006B800060195F0000F18BF704703F0004652007E
:1006C80043EB030313F4801F08BF013DF7D043EA4F
:1006D8000603704794EA0C0F0CEA135518BF95EA05
:1006E8000C0F0CD050EA410618BF52EA4306D1D18C
:1006F80081EA030101F000414FF0000070BD50EAAB
:10070800410606BF1046194652EA430619D094EA34
:100718000C0F02D150EA013613D195EA0C0F05D11E
:1007280052EA03361CBF104619460AD181EA030172
:1007380001F0004141F0FE4141F470014FF000002A
:1007480070BD41F0FE4141F4780170BD70B54FF0C5
:10075800FF0C4CF4E06C1CEA11541DBF1CEA135545
:1007680094EA0C0F95EA0C0F00F0A7F8A4EB050427
:1007780081EA030E52EA03354FEA013100F088801E
:100788004FEA03334FF0805545EA131343EA1263E7
:100798004FEA022245EA111545EA10654FEA00269C
:1007A8000EF000419D4208BF964244F1FD0404F555
:1007B800407402D25B084FEA3202B61A65EB0305B1
:1007C8005B084FEA32024FF480104FF4002CB6EB6E
:1007D800020E75EB030E22BFB61A754640EA0C00EE
:1007E8005B084FEA3202B6EB020E75EB030E22BF2E
:1007F800B61A754640EA5C005B084FEA3202B6EB6F
:10080800020E75EB030E22BFB61A754640EA9C002D
:100818005B084FEA3202B6EB020E75EB030E22BFFD
:10082800B61A754640EADC0055EA060E18D04FEABB
:10083800051545EA16754FEA06164FEAC30343EA5B
:1008480052734FEAC2025FEA1C1CC0D111F4801F28
:100858000BD141EA00014FF000004FF0004CB6E721
:1008680011F4801F04BF01430020B4F1FD0C88BFC0
:10087800BCF5E06F3FF6AFAEB5EB030C04BFB6EBCB
:10088800020C5FEA500C50F1000041EB045170BDBE
:100898000EF0004E4EEA113114EB5C04C2BFD4EBEB
:1008A8000C0541EA045170BD41F480114FF0000E6F
:1008B800013C90E645EA060E8DE60CEA135594EAEB
:1008C8000C0F08BF95EA0C0F3FF43BAF94EA0C0FEE
:1008D8000AD150EA01347FF434AF95EA0C0F7FF463
:1008E80025AF104619462CE795EA0C0F06D152EAB7
:1008F80003353FF4FDAE1046194622E750EA41069B
:1009080018BF52EA43067FF4C5AE50EA41047FF4AB
:100918000DAF52EA43057FF4EBAE12E74FEA41020E
:10092800B2F1E04324BFB3F5001CDCF1FE5C0DD945
:1009380001F0004C4FEAC0024CEA5070B2F1004F8F
:1009480040EB830008BF20F00100704711F0804F92
:1009580021D113F13872BCBF01F00040704741F457
:1009680080114FEA5252C2F11802C2F1200C10FA5B
:100978000CF320FA02F018BF40F001004FEAC1233F
:100988004FEAD32303FA0CFC40EA0C0023FA02F3E3
:100998004FEA4303CCE77FEA625307D150EA0133B9
:1009A8001EBF4FF0FE4040F44000704701F0004089
:1009B80040F0FE4040F40000704700BF10B5054C01
:1009C800237833B9044B13B10448AFF300800123F3
:1009D800237010BD580000200000000040130008DC
:1009E80008B5034B1BB103490348AFF3008008BDAA
:1009F800000000005C00002040130008034AD2F801
:100A0800883043F47003C2F88830704700ED00E086
:100A1800224B9B6803F00C03042B11D0082B13D036
:100A2800002B37D11E4B1F4A1A601C4B9B68C3F31F
:100A380003131D4AD15C1A4A1368CB4013607047F0
:100A4800174B1A4A1A60F0E7144B59685A6802F0B3
:100A58003F0211F4800F13D0144BB3FBF2F30F4A8B
:100A68005268C2F3881202FB03F30C4A5268C2F3BD
:100A7800014201325200B3FBF2F3094A1360D4E792
:100A8800084BB3FBF2F3054A5268C2F3881202FB23
:100A980003F3EAE7024B034A1A60C6E7003802404C
:100AA800000000200024F4007013000800127A00EF
:100AB80010B487B01E4A936943F40033936102F57A
:100AC8008062936943F40033936102F5806293690D
:100AD80043F480239361EC46164C0FCCACE80F002E
:100AE80094E803008CE80300002119E0124B1A78FF
:100AF8000A44124B83FB0203A3EBE27303EB4303A9
:100B0800D31ADBB206AA02EBC30353F8180C8269A6
:100B180013F814CC012303FA0CF313438361013156
:100B2800074B1B788B42E1DC07B05DF8044B70473C
:100B3800000002405813000874000020565555550F
:100B48000400002008B506490A780132054B83FBEA
:100B5800020303EB4303D31A0B70FFF7A9FF08BD89
:100B6800740000205655555508B509480378094AB8
:100B7800A2FB031202F0FE0101EB52029B1A0133A1
:100B88000370054B00221A70FFF792FF08BD00BFE3
:100B980004000020ABAAAAAA7400002008B500F03F
:100BA800F1F800F029F900F069F800F08DF800F08C
:100BB800BDF81B4D296901F00101DFED1A8A9FED8F
:100BC8001A8A1A4CF0EE681AB0EE481AF1EE040AC6
:100BD800B7EE000A204600F063F91549204600F0F8
:100BE800EDF92146204600F0ECF92969114CC1F3D2
:100BF8004001F0EE681AB0EE481AF1EE040AB7EEBA
:100C0800000A204600F04CF90B49204600F0D6F9BE
:100C18002146204600F0D5F9FFF74AFFFEE700BF5E
:100C280000080240CDCC4C3ECDCC4C3F9800002073
:100C38004D0B000878000020710B000810B50B4A16
:100C480013685168013341F1000113605160084B8A
:100C580019691C69C4F3400401F00101054800F05A
:100C680068F92146044800F064F910BDB800002076
:100C7800000802409800002078000020104AD2F8AE
:100C8800303843F00103C2F830380E4B1A6822F0AE
:100C98000C021A6042F004021A605A6822F002023A
:100CA8005A609A6822F00C029A6042F004029A6034
:100CB800DA6822F00C02DA604FF400329A61704769
:100CC8000030024000000240164AD2F8303843F0A3
:100CD8000203C2F83038144BD3F8002422F00C0277
:100CE800C3F80024D3F8002442F00402C3F8002417
:100CF800D3F8042422F00202C3F80424D3F8082409
:100D080022F00C02C3F80824D3F8082442F00402A5
:100D1800C3F80824D3F80C2422F00C02C3F80C24DE
:100D2800704700BF0030024000000240134A136BB6
:100D380043F004031363124B1A6822F00F021A607F
:100D4800DA6822F00F02DA601A6822F030021A60BC
:100D58001A6842F010021A605A6822F004025A60B7
:100D6800DA6822F03002DA609A6822F030029A607B
:100D78009A6842F010029A60704700BF003802403B
:100D88000008024008B5194A136843F48033136019
:100D9800164B1B6813F4003FFAD0154B40F205724E
:100DA8001A60A3F580639A689A609A6842F4A05220
:100DB8009A609A6842F400429A600E4A5A601A6829
:100DC80042F080721A60094B1B6813F0007FFAD05A
:100DD800064A936843F002039360044B9B6803F050
:100DE8000C03082BF9D1FFF713FE08BD00380240A9
:100DF800003C0240085440070D4B1B680D4AA2FBFB
:100E080003239B09013BB3F1807F0FD24FF0E0220F
:100E18005361094BF02183F82310002393610723C2
:100E28001361136943F0040313617047FEE700BFC1
:100E380000000020D34D621000ED00E0000000002B
:100E480008B52DED028B10EE900ADFED137A80EED7
:100E5800278AFFF7F9FA0EA3D3E90023FFF74CFB23
:100E680002460B4600200D49FFF770FCFFF756FDC0
:100E780000EE100AB1EE488A88EE000A00F0F8F891
:100E8800F7EE007A37EEC00ABDEC028B08BD00BF52
:100E9800182D4454FB21194000007A440000F03F0B
:100EA800C8B338B52DED028BB0EE418AF0EE618AF9
:100EB8000C460546B4EEE11AF1EE10FA2DD9F7EE1C
:100EC800007AB4EEE71AF1EE10FA2ADCF5EEC01A51
:100ED800F1EE10FA27D4B5EEC00AF1EE10FA24D9D3
:100EE800F5EEC00AF1EE10FA21D9FFF7A9FF85ED5A
:100EF800010A2C746C7407EE904AF8EE677AC5ED17
:100F0800007A85ED028AC5ED038A00236B61AB6127
:100F1800EB61012002E0002070470020BDEC028B4D
:100F280038BD0020FAE70020F8E70020F6E70020A7
:100F3800F4E7002841D008B50346017407EE901A7B
:100F4800F8EE677AD0ED016A66EEA77AB7EE007A16
:100F580037EE667AD0ED006A27EE267A77EE877A42
:100F6800C0ED007A427C7AB990ED027AF4EEC77A45
:100F7800F1EE10FA01DB0121417412B9597C012903
:100F88000CD0012A10D008BD90ED037AF4EEC77A90
:100F9800F1EE10FAF1D800214174EEE75A69002AFF
:100FA800F1D0D8699047EEE75A7C002AEBD19A69CC
:100FB800002AE8D0D8699047E5E7704700B1416159
:100FC800704700B1C1617047DFF834D00D480E4951
:100FD8000E4A002302E0D458C4500433C4188C428B
:100FE800F9D30B4A0B4C002301E013600432A242F0
:100FF800FBD3FFF703FD00F017F8FFF7CFFD7047AD
:10100800000002200000002058000020A013000863
:1010180058000020F8010020FEE70000014B186886
:10102800704700BF0800002070B50D4D0D4C641BC3
:10103800A4100026A64209D10B4D0C4C00F07CF9F7
:10104800641BA4100026A64205D170BD55F8043BC8
:1010580098470136EEE755F8043B98470136F2E722
:101068009813000898130008981300089C130008A8
:1010780008B52DED028BB0EE408A00F03FF8F0EE97
:10108800408AB0EE480A00F02FF868B1DFED127A16
:10109800B4EEE78AF1EE10FA0BDCDFED107AB4EE6D
:1010A800E78AF1EE10FA0FD4B0EE680ABDEC028BB5
:1010B80008BDDFED0B8AFFF7B1FFB0EE680ABDECA3
:1010C800028B2223036008BDFFF7A8FF2223DFED70
:1010D800058A0360E8E700BF1772B142B5F1CFC2D5
:1010E8000000807F0000000010EE103A23F000405E
:1010F800B0F1FF4FACBF00200120704710EE103A4E
:1011080023F00042B2F1FF4F56D84FEAD37100F0F6
:1011180095806248834200F38780002BC0F2878065
:101128005F4B9A424BD95F4B9A4200F29A805E4BD2
:101138005E4A03EB8103D3ED004A02EB810281F0A2
:10114800010370EE644AD2ED007A5B1A34EEE70AC6
:10115800DFED576A9FED575ADFED575A9FED576AF3
:1011680020EE007AA7EE265ADFED556AE5EE075A1B
:10117800E5EE876AA6EE876AF0EE406AE6EE476A11
:1011880020EE266A002B42D0B0EE007A37EE667A5F
:10119800B7EE000AC6EE076A13F17D0F77EEE67A1E
:1011A80077EEE47A30EE670A4FDB10EE102A02EB96
:1011B800C35300EE103A704730EE000A7047B2F1A0
:1011C800505F0AD2DFED3F7A70EE277AB7EE007AE9
:1011D800F4EEC77AF1EE10FA5DDC60EE007A9FED6E
:1011E800347ADFED345A9FED346ADFED356AE7EE85
:1011F800875A9FED327AA7EEA56AE7EE866AA7EED0
:10120800A67AF0EE406AE7EEC76A20EE266AF0EEAC
:10121800007A76EEE76AB7EE007AC6EE267A77EEBF
:10122800C07A37EE670A7047002000F07FB8264B77
:101238009A427FF675AF002000F072B8DFED237A8E
:10124800002918BFB0EE670A704710EE102A643301
:1012580002EBC353DFED1E7A00EE103A20EE270AA8
:1012680070471C4B9FED1C7ADFED1C6A03EB810372
:10127800D3ED007AE0EE077A9FED197AFDEEE77A72
:10128800F0EE404A17EE903AF8EEE77AE7EEE64AD3
:1012980067EE877A5AE730EE070A70471772B1424D
:1012A8001872B13E9115853F881300088013000815
:1012B8004CBB31330EEADDB555B38A38ABAA2A3EAA
:1012C800610B36BBCAF24971B5F1CF42000000008C
:1012D8000000800D901300083BAAB83F8071313F91
:1012E800D1F7173710B52DED028BB0EE408A0446C2
:1012F800FFF794FEB0EE480ABDEC028B046010BD07
:1013080030B1F1EE407A27EE800A2220FFF7EABFDB
:10131800F0EE407A27EE800A2220FFF7E3BF00BFF5
:101328009FED010AFFF7ECBF000000109FED010AD6
:10133800FFF7E6BF00000070F8B500BFF8BC08BCB6
:101348009E467047F8B500BFF8BC08BC9E4670477B
:1013580000000240010000000004024001000000FB
:101368000008024002000000000000000000000029
:101378000102030406070809D1F71737D1F717B791
:101388008071313F807131BF0000003F000000BF15
:04139800E909000857
:04139C00C509000877
:1013A0000024F400010000000C00002000000000F8
:1013B000C000002028010020900100200000000053
:1013C000000000000000000000000000000000001D
:1013D000000000000000000000000000000000000D
:1013E00000000000000000000000000000000000FD
:0813F0000000000000000000F5
:0400000508000FD10F
:00000001FF
